:020000040800F2
:1000000000500020790E0008DD030008DF0300081F
:10001000E1030008E3030008E50300080000000016
:10002000000000000000000000000000E7030008DE
:10003000E903000800000000EB030008ED030008DE
:10004000C10E0008C10E0008C10E0008C10E000854
:10005000C10E0008C10E0008F5030008C10E00081B
:10006000C10E0008C10E0008C10E0008C10E000834
:10007000C10E0008C10E0008C10E0008C10E000824
:10008000C10E0008C10E0008C10E0008C10E000814
:10009000C10E0008C10E0008C10E0008C10E000804
:1000A000C10E0008C10E0008C10E0008C10E0008F4
:1000B000C10E0008C10E0008C10E0008C10E0008E4
:1000C000C10E0008C10E0008C10E0008C10E0008D4
:1000D000C10E0008C10E0008C10E0008C10E0008C4
:1000E000C10E0008C10E0008C10E0008000000008B
:1000F0000000000000000000000000000000000000
:0C01000000000000000000005FF808F1A3
:10010C0010B5054C237833B9044B13B10448AFF345
:10011C0000800123237010BD3C040020000000006F
:10012C009010000808B5034B1BB103490348AFF30B
:10013C00008008BD00000000400400209010000862
:10014C0070B588B0002404940594069407941F4B52
:10015C009A6942F010029A619A6902F010020192B7
:10016C00019A9A6942F020029A619A6902F020027F
:10017C000292029A9A6942F004029A619B6903F016
:10018C0004030393039B124D22460E21284600F0D4
:10019C0014FB012604960F4B0593069404A92846DC
:1001AC0000F0F2F90E2304930596022306930793AD
:1001BC0004A9284600F0E8F922462146062000F062
:1001CC0089F9062000F0BEF908B070BD001002409D
:1001DC00000801400000111000B583B0124BDA6921
:1001EC0042F08052DA61DB6903F080530193019B8A
:1001FC0000F002FB0D4B0122C3F840240022C3F88F
:10020C0040244FF4807000F009FB094A136843F056
:10021C00040313604FF4807000F0F4FA00F00AFB52
:10022C0003B05DF804FB00BF001002400000424226
:10023C000070004008B5034B4FF0FF32DA60FFF757
:10024C00CBFF08BD0010024070B5002201211348FD
:10025C0000F0B3FA00252E4604E00136F6B2632E08
:10026C0016D80025142000F00FF901210B4800F0DE
:10027C009DFA04460128F0D00135EDB2052DF1D9D7
:10028C0000220121054800F098FA0024204670BD98
:10029C0001221146014800F090FAF7E700080140EE
:1002AC0000B587B0124B9A6942F004029A619B69BF
:1002BC0003F004030193019B012302930D4B039361
:1002CC000223049302A90C4800F05EF9FFF7BCFF6F
:1002DC0050B102221146062000F0FCF8062000F076
:1002EC0031F907B05DF804FBFFF7A4FFF1E700BF9D
:1002FC0000100240000011100008014072B6FEE729
:10030C0000B591B02822002106A800F0F9FD0023C9
:10031C0001930293039304930593012206924FF4E5
:10032C00803307930A9202220D920E934FF4E0133E
:10033C000F9306A800F0A4FA80B90F2301930221B1
:10034C000291002303934FF480620492059301A859
:10035C0000F0D6FC20B911B05DF804FBFFF7CEFF1E
:10036C00FFF7CCFF08B500F06BF8FFF7C9FFFFF7FC
:10037C00E7FEFFF795FF0221034800F024FAFA206C
:10038C0000F082F8F7E700BF0008014082B00E4B86
:10039C009A6942F001029A619A6902F00102009294
:1003AC00009ADA6942F08052DA61DB6903F080531B
:1003BC000193019B054A536823F0E06343F00073FB
:1003CC00536002B0704700BF0010024000000140B3
:1003DC00FEE7FEE7FEE7FEE7FEE770477047704773
:1003EC0008B500F03FF808BD08B5012000F0F6F99B
:1003FC0008BD704710B504460E4B18784FF47A734D
:10040C00B3FBF0F30C4A1068B0FBF3F000F0A8F863
:10041C0068B90F2C01D901200AE0002221464FF0C7
:10042C00FF3000F057F8054B1C60002000E0012065
:10043C0010BD00BF040000200000002008000020B8
:10044C0008B5074A136843F010031360032000F04B
:10045C002FF80F20FFF7CEFFFFF798FF002008BD05
:10046C0000200240034A1168034B1B780B441360B5
:10047C00704700BF5804002004000020014B18688E
:10048C00704700BF5804002038B50446FFF7F6FF4C
:10049C000546B4F1FF3F02D0044B1B781C44FFF718
:1004AC00EDFF401BA042FAD338BD00BF0400002072
:1004BC00074AD36823F4E0631B041B0C000200F40E
:1004CC00E060034343F0BF6343F40033D3607047F1
:1004DC0000ED00E000B5194BDB68C3F30223C3F158
:1004EC00070CBCF1040F28BF4FF0040C03F1040EF1
:1004FC00BEF1060F18D9033B4FF0FF3E0EFA0CFC71
:10050C0021EA0C0199400EFA03F322EA0303194382
:10051C0000280BDB0901C9B200F1604000F5614015
:10052C0080F800135DF804FB0023E5E700F00F00F2
:10053C000901C9B2024B1954F4E700BF00ED00E009
:10054C0014ED00E0002807DB00F01F024009012336
:10055C009340024A42F82030704700BF00E100E0AF
:10056C000138B0F1807F0BD24FF0E0235861054A7F
:10057C00F02182F823100020986107221A6170473D
:10058C000120704700ED00E070B582B00024A44655
:10059C00A6E0804DAA4210D007D97F4DAA420CD0BC
:1005AC0005F58035AA4208D013E0A5F58015AA42BE
:1005BC0003D005F57025AA4207D18A68002A58D0C5
:1005CC00012A51D04361082403E0A5F58015AA4205
:1005DC00F3D0BEF1FF0F4ED80646BEF1FF0F4CD83C
:1005EC004FEA8C0233680F25954023EA050304FA81
:1005FC0002F2134333604B6813F0805F6ED0674B8D
:10060C009A6942F001029A619B6903F0010301931C
:10061C00019B4FEA9C02951C614B53F825600CF032
:10062C0003039D000F23AB4026EA03065D4B984263
:10063C0029D003F58063984200F08E8003F5806327
:10064C00984200F08B8003F58063984219D0042304
:10065C001AE0CC68BDE7CC680434BAE7CC6808343F
:10066C00B7E7CC680C34B4E703610824B1E7002485
:10067C00AFE70424ADE7061DAFE7ACF1080292002A
:10068C00B0E7032300E00023AB4033430232444D78
:10069C0045F822304B6813F4803F61D0424A13680E
:1006AC0043EA0E0313604B6813F4003F5ED03E4ADE
:1006BC00536843EA0E0353604B6813F4801F5BD0FE
:1006CC00394A936843EA0E0393604B6813F4001F96
:1006DC0058D0354AD36843EA0E03D3600CF1010CB1
:1006EC000A6832FA0CF353D0012303FA0CF302EA32
:1006FC00030E33EA0202F1D14A68122A3FF649AFDF
:10070C00122A3FF666AF01A555F822F0C70500087E
:10071C005F060008690600087B060008DF05000874
:10072C00DF050008DF050008DF050008DF0500080D
:10073C00DF050008DF050008DF050008DF050008FD
:10074C00DF050008DF050008DF050008DF050008ED
:10075C00630600086F060008012395E7022393E760
:10076C00114A136823EA0E0313609CE70E4A536880
:10077C0023EA0E0353609FE70B4A936823EA0E03A8
:10078C009360A2E7084AD36823EA0E03D360A5E777
:10079C0002B070BD000022100000311000100240A9
:1007AC000000014000080140000401408368194228
:1007BC0001D001207047002070470AB101617047D9
:1007CC00090401617047C36801EA030221EA0301CD
:1007DC0041EA0241016170477047000008B5054BC2
:1007EC005B69034200D108BD024B5861FFF7F4FF6F
:1007FC00F9E700BF00040140014B01221A62704767
:10080C0000000E4290FAA0F0B0FA80F0024B0344C4
:10081C009B0001221A6070472080831090FAA0F090
:10082C00B0FA80F0024B03449B0000221A60704720
:10083C0020808310054A136843F002031360044AB6
:10084C00136943F00403136130BF7047007000401C
:10085C0000ED00E082B0084B1B68084AA2FB0323A2
:10086C005B0A00FB03F3019300BF019B5A1E01922C
:10087C00002BF9D102B0704700000020D34D62105C
:10088C00002800F0F18170B582B00446036813F0C3
:10089C00010F2CD0994B5B6803F00C03042B1DD07B
:1008AC00964B5B6803F00C03082B12D06368B3F50E
:1008BC00803F41D0002B55D103F1804303F5043325
:1008CC001A6822F480321A601A6822F480221A60A4
:1008DC0037E08A4B5B6813F4803FE7D0874B1B688B
:1008EC0013F4003F03D06368002B00F0BF81236832
:1008FC0013F0020F75D0814B5B6813F00C0F5FD0B7
:10090C007E4B5B6803F00C03082B54D02369002B3F
:10091C0000F08A807A4B01221A60FFF7AFFD054682
:10092C00764B1B6813F0020F75D1FFF7A7FD401B28
:10093C000228F5D903209EE1704A136843F48033F2
:10094C001360636843B3FFF799FD05466B4B1B6857
:10095C0013F4003FCBD1FFF791FD401B6428F5D970
:10096C00032088E1B3F5A02F09D0644B1A6822F458
:10097C0080321A601A6822F480221A60E1E703F1CF
:10098C008043A3F53C331A6842F480221A601A683B
:10099C0042F480321A60D4E7FFF770FD0546574BDE
:1009AC001B6813F4003FA2D0FFF768FD401B6428BE
:1009BC00F5D903205FE1514B5B6813F4803FA5D15F
:1009CC004E4B1B6813F0020F03D02369012B40F030
:1009DC004F814A4A136823F0F803616943EAC10363
:1009EC001360236813F0080F33D0A369002B5CD07D
:1009FC00434B0122C3F88024FFF740FD05463F4BD3
:100A0C005B6A13F0020F21D1FFF738FD401B02285F
:100A1C00F5D903202FE1394A136823F0F8036169F3
:100A2C0043EAC1031360DCE7354B00221A60FFF781
:100A3C0025FD0546314B1B6813F0020FD1D0FFF793
:100A4C001DFD401B0228F5D9032014E10120FFF7FE
:100A5C0001FF236813F0040F00F09680274BDB692D
:100A6C0013F0805F34D1254BDA6942F08052DA61A1
:100A7C00DB6903F080530193019B0125214B1B681B
:100A8C0013F4807F26D0E368012B3DD0002B53D18B
:100A9C0003F1804303F504331A6A22F001021A624F
:100AAC001A6A22F004021A6233E0154B0022C3F8D2
:100ABC008024FFF7E3FC0546104B5B6A13F0020F32
:100ACC00C7D0FFF7DBFC401B0228F5D90320D2E08E
:100ADC000025D3E70B4A136843F480731360FFF7C8
:100AEC00CDFC0646074B1B6813F4807FCBD1FFF778
:100AFC00C5FC801B6428F5D90320BCE00010024023
:100B0C0000004242007000405F4A136A43F0010348
:100B1C001362E36833B3FFF7B1FC06465A4B1B6A0A
:100B2C0013F0020F2FD1FFF7A9FC801B41F2883381
:100B3C009842F3D903209EE0052B09D0524B1A6A38
:100B4C0022F001021A621A6A22F004021A62E0E729
:100B5C004D4B1A6A42F004021A621A6A42F0010200
:100B6C001A62D6E7FFF78AFC0646474B1B6A13F05E
:100B7C00020F08D0FFF782FC801B41F288339842A9
:100B8C00F3D9032077E0E5B9E369002B72D03E4A34
:100B9C00526802F00C02082A56D0022B17D03B4B9D
:100BAC0000221A66FFF76AFC0446374B1B6813F0E9
:100BBC00007F47D0FFF762FC001B0228F5D9032009
:100BCC0059E0314AD36923F08053D361DCE72F4BD2
:100BDC0000221A66FFF752FC05462B4B1B6813F0DC
:100BEC00007F06D0FFF74AFC401B0228F5D90320F2
:100BFC0041E0236AB3F5803F1AD023494B6823F4B4
:100C0C007413226A606A024313434B601F4B012228
:100C1C001A66FFF733FC04461B4B1B6813F0007F6E
:100C2C000ED1FFF72BFC001B0228F5D9032022E084
:100C3C00154A536823F40033A1680B435360DCE777
:100C4C00002018E0002016E0012B16D00E4B5B683C
:100C5C0003F48031226A914211D103F47013626A59
:100C6C0093420ED1002006E001207047012002E0E3
:100C7C00012000E0002002B070BD0120FBE7012044
:100C8C00F9E70120F7E700BF0010024000004242E4
:100C9C0086B0174B0FCB0DF1180C0CE90F0040F27E
:100CAC000123ADF80430134B5B6803F00C02082AE7
:100CBC0002D0114806B07047C3F3834218326A441D
:100CCC0012F8100C13F4803F0DD00A4B5B68C3F381
:100CDC00404318336B4413F8143C074A02FB00F0F2
:100CEC00B0FBF3F0E6E7054B03FB00F0E2E700BFD7
:100CFC00B81000080010024000127A0000093D00F4
:100D0C00002800F0A08070B50D460446524B1B68BD
:100D1C0003F007038B420BD24F4A136823F00703EF
:100D2C000B431360136803F007038B4240F08D8074
:100D3C00236813F0020F17D013F0040F04D0474AA6
:100D4C00536843F4E0635360236813F0080F04D036
:100D5C00424A536843F460535360404A536823F04B
:100D6C00F003A1680B435360236813F0010F31D0DB
:100D7C006368012B20D0022B25D0384A126812F060
:100D8C00020F64D035494A6822F0030213434B60CA
:100D9C00FFF774FB0646314B5B6803F00C0362688B
:100DAC00B3EB820F16D0FFF769FB801B41F288333F
:100DBC009842F0D9032045E0284A126812F4003F0B
:100DCC00E0D101203EE0254A126812F0007FD9D113
:100DDC00012037E0204B1B6803F00703AB420AD914
:100DEC001D4A136823F007032B431360136803F0A9
:100DFC000703AB422DD1236813F0040F06D0174A1A
:100E0C00536823F4E063E1680B435360236813F0E9
:100E1C00080F07D0114A536823F46053216943EA41
:100E2C00C1035360FFF734FF0C4B5B68C3F3031330
:100E3C000B4AD35CD8400B4B18600B4B1868FFF770
:100E4C00D9FA002070BD012070470120FAE701207B
:100E5C00F8E70120F6E700BF002002400010024036
:100E6C00A810000800000020080000200C480D49C4
:100E7C000D4A002302E0D458C4500433C4188C42E9
:100E8C00F9D30A4A0A4C002301E013600432A2424F
:100E9C00FBD3FFF7AEFA00F00FF8FFF763FA7047D9
:100EAC00000000203C040020DC1000083C04002062
:100EBC0060040020FEE7000070B50D4E0D4D761B52
:100ECC00B61006D0002455F8043B01349847A642CE
:100EDC00F9D1094E094D00F0D5F8761BB61006D0A5
:100EEC00002455F8043B01349847A642F9D170BD53
:100EFC00D0100008D0100008D8100008D01000083E
:100F0C00830730B548D0541E002A3FD00346CAB2DE
:100F1C0001E0013C3AD303F8012B9D07F9D1032CD6
:100F2C002DD9CDB245EA05250F2C45EA054536D914
:100F3C00A4F1100222F00F0C03F1200EE6444FEA4C
:100F4C00121C03F1100242E9045542E90255103219
:100F5C007245F8D10CF1010214F00C0F03EB0212E4
:100F6C0004F00F0C13D0ACF1040323F0030304338F
:100F7C00134442F8045B9342FBD10CF003042CB1F4
:100F8C00CAB21C4403F8012B9C42FBD130BD644611
:100F9C001346002CF4D1F9E703461446BFE71A4672
:100FAC00A446E0E7024B13B1024800F005B87047C5
:100FBC0000000000D10F0008002301461A46184615
:100FCC0000F01AB838B5084B084D5B1B9C1007D0C5
:100FDC00043B1D44013C55F804399847002CF9D1C9
:100FEC00BDE8384000F054B8DC100008D8100008F8
:100FFC00704700BF704700BF2DE9F047DFF87CA0B9
:10100C000646DAF8000098460F469146FFF7F0FFC7
:10101C001B4B1B68D3F8484124B365681F2D26DC95
:10102C005EB96B1C0235DAF80000636044F8257079
:10103C00FFF7E0FF0020BDE8F087012304EB8501FA
:10104C00C1F88890D4F88821AB401A43022EC4F81A
:10105C008821C1F80881E4D1D4F88C211343C4F859
:10106C008C31DEE703F5A674C3F84841D5E7DAF80E
:10107C000000FFF7BFFF4FF0FF30DCE73804002023
:10108C00CC100008F8B500BFF8BC08BC9E467047F1
:0C109C00F8B500BFF8BC08BC9E467047C9
:1010A8000000000000000000010203040607080910
:1010B80002030405060708090A0B0C0D0E0F101091
:0810C8000000000010000020F0
:0810D000B10F00083101000816
:0410D8000D010008FE
:1010DC000024F400010000001000000000000000DB
:1010EC0000000000FC02002064030020CC03002060
:1010FC0000000000000000000000000000000000E4
:10110C0000000000000000000000000000000000D3
:10111C0000000000000000000000000000000000C3
:10112C0000000000000000000000000000000000B3
:10113C0000000000000000000000000000000000A3
:10114C000000000000000000000000000000000093
:10115C000000000000000000000000000000000083
:10116C000000000000000000000000000000000073
:10117C000000000000000000000000000000000063
:10118C000000000000000000010000000000000052
:10119C000E33CDAB34126DE6ECDE05000B00000017
:1011AC000000000000000000000000000000000033
:1011BC000000000000000000000000000000000023
:1011CC000000000000000000000000000000000013
:1011DC000000000000000000000000000000000003
:0C150C0000000000000000005C04002053
:0400000508000E7968
:00000001FF
